:020000040000FA
:0600000002011D0225AF04
:03002B000221D2DD
:0300530002262260
:03006B000221A0CF
:10008300022463E5C754F84401F5C779012200004F
:100093000080FB120086B90003020107E47921788E
:1000A30008B800028004F709D8FCE479297802B87B
:1000B30000028004F709D8FCE490028178347908BF
:1000C3008002F0A3D8FCD9FA781A90014D7A01BACC
:1000D30000028007E493A3F608DAF99009B4AA8230
:1000E300AB8390014E784679038015E493A3AC82E9
:1000F300AD838A828B83F0A3AA82AB838C828D83A8
:10010300D8E9D9E77582CF7583B6740312012F75C9
:100113008291758300740012012F75D00075813FA1
:10012300751881751902759F00020096C09FF59F8F
:10013300E473D09F22D083D082C09FE493C0E07445
:100143000193C0E0740293F59F220183033E0D3AAD
:1001530011008001E80301590400005F04BE067C1E
:100163005EC6DAFA0EFEDEBF077D5FC7DBFB0FFF5D
:10017300DFFFFF120A0A02C385010000AA8502BF3E
:1001830085010000DC0910E583010000390302BD8D
:10019300850300003B0302BF85010000DD09101544
:1001A30084030000410302BF85010000DE0910350E
:1001B300840300004203020202020202020202015D
:1001C3000D000000100102C385010000B38502BFCA
:1001D300850100001F0A02DD85010000450302BFFF
:1001E30085010000200A02DB850100007F8402BF35
:1001F30085010000210A02D985010000638402BF42
:1002030085010000220A02D785010000C18302BFD5
:1002130085010000230A02D585010000AF8302BFD8
:1002230085010000240A02D385010000D38302BFA5
:1002330085010000250A02D185010000718402BFF7
:1002430085010000260A02CF85010000558402BF04
:1002530085010000270A02CD85010000280A01E874
:1002630003053F10FF000130750302010600000083
:10027300000000000000000000000000000000007B
:10028300000000000000000000FFFF0600800CE8F3
:1002930003FF0000B4000028002800283075A000E8
:1002A300A000A000A00000080008E001F00010007A
:1002B30010001000100010001000500050005000FB
:1002C30010001000D0070000000000000F00010024
:1002D3000500307507001000010081FF0000FF5387
:1002E3000A710A590AFF02020208025000A0000024
:1002F30000E80302C385010000B68502BF85010043
:10030300004F0B02BB850100000B0502BF850100F6
:1003130000500B02B985010000210502BF850100D1
:1003230000510B02E585010000230502BF85010092
:1003330000520B02CB85080000240502BF85010093
:1003430000530B02E185010000540BFF0100FF2065
:1003530002C385010000AD8502BF85010000B80B13
:1003630002E385000000000002BD85030000710563
:100373003510351035103510351035103510351052
:1003830035103510351035103510C312DB12BD1280
:1003930012013849A103120138A9A103120138C17E
:1003A300A2031201387DA30312013880A3031201B3
:1003B30038D39903120138B59A03120138D89A0336
:1003C300120138F39B03120138069C0312013817FC
:1003D3009C03120138C6B70312013875DA02120101
:1003E3003897DA02120138BADA0212013828DB022E
:1003F30012013834DB02120138B3DB02120138F583
:10040300DB021201388EDC02120138B0DC02120169
:100413003829DD021201383FDD0212013848DD02BE
:1004230012013851DD021201385ADD021201386817
:10043300DD0212013873DD02120138DFDD02120121
:1004430038A9DE02120138F7E402120138DFE502AF
:100453001201380EE60212013801E802120138B027
:10046300E80212013821E90212013887E902120178
:100473003810B603120138BEAC03120138EEAC03D8
:1004830012013857AD03120138BAAD03120138080F
:10049300AE03120138A0F702120138BFF7021201AE
:1004A30038EFF702120138F2F80212013860F9024C
:1004B30012013885F902120138ACF9021201381021
:1004C300FA02120138BCFA02120138B1FB0212011E
:1004D30038D1FB02120138EAFB021201380DFC028B
:1004E300120138EED402120138F8D402120138395D
:1004F300D50212013882D502120138BCD50212018D
:100503003812D60212013833D6021201383CD60211
:1005130012013890D602120138B9D602120138C33B
:10052300D60212013831D702120138C1D7021201A3
:10053300381CD8021201384AD802120138D2D80224
:1005430012013811D90212013846D9021201385862
:10055300D90212013877D90212013880D902120167
:100563003847DA0212013870B60312013870B1034A
:10057300120138C9A503120138FFA503120138334C
:10058300A60312013880A703120138297F00120144
:10059300383F7F00120138497F00120138937F00F2
:1005A3001201380CF3021201381FF302120138E072
:1005B300F3021201381FF4021201383CF402120153
:1005C3003875F402120138C2F402120138F4F4024D
:1005D3001201382BF50212013834F7021201386781
:1005E300B2031201388AB203120138B9B2031201FD
:1005F30038D1B20312013813B3031201388D8C03BF
:10060300120138728D03120138E68E031201381F6E
:100613008F03120138648F03120138818F03120193
:10062300380A9003120138E496031201380997033C
:1006330012013833970312013827B703120138E840
:100643008501120138C6870112013865890112013B
:1006530038108A01120138908A01120138158B0172
:100663001201383E8B01120138198F0112013890A3
:100673008F01120138A79001120138E19001120194
:1006830038229101120138699201120138BF920197
:10069300120138089301120138779301120138E3EC
:1006A30093011201381494011201382C94011201A0
:1006B300384595011201385595011201380B970100
:1006C300120138229701120138549701120138F6AA
:1006D30098011201388A99011201387DB70312017A
:1006E30038BCB703120138FAB70312013833B40325
:1006F30012013843B40312013852B403120138040F
:10070300B5031201386EB003120138F3B0031201BE
:100713003857B1031201386BFE01120138A8FE01EC
:10072300120138CCFE011201384CFF01120138C509
:10073300FF011201382AAE031201384CAE03120135
:1007430038ADAE03120138BFAE031201380FAF0349
:100753001201384DAF0312013850AF03120138E4D0
:10076300B703120138F4B703120138F7B7031201C4
:1007730038F87F001201388FA3031201381FA50335
:1007830012013880A503120138C6A50312013826C9
:10079300AB0312013878AB03120138EBAB03120140
:1007A3003858AC03120138029F031201382C9F03FF
:1007B300120138FB9F03120138D7A0031201388FAF
:1007C300BE021201385BBF021201389CBF02120144
:1007D30038D6BF0212013834C00212013888C00271
:1007E300120138E6C0021201387CC10212013884BA
:1007F300C2021201380EC402120138ACC402120143
:100803003813C50212013826C5021201381AC6026E
:1008130012013863C6021201388F8D02120138C1EA
:100823009002120138529202120138A99202120167
:1008330038C69202120138469302120138C294025A
:10084300120138919502120138FE9802120138E81C
:10085300990212013873A9031201388AA9031201FC
:1008630038B9A903120138F2A9031201381AAA03ED
:1008730012013848AA031201385FAA03120138761D
:10088300AA031201388CAA03120138B3AA03120176
:1008930038C6AA03120138DCAA03120138EFAA03EF
:1008A30012013814AB03120138EB7400120138EA59
:1008B30075001201381F76001201384076001201CC
:1008C300385076001201387176001201387D7700B6
:1008D3001201384A7800120138BD780012013843FA
:1008E3007900120138867900120138BD79001201AE
:1008F30038437A00120138157B00120138737B00EC
:100903001201388B7B00120138057C001201380874
:100913007C001201380B7C00120138B27C001201FA
:1009230038CA7C00120138FA7C001201381A7D00A3
:10093300120138087E00120138BE7E0012013864AD
:10094300EE021201388CEE02120138BAEE021201E5
:1009530038F1EE0212013859EF02120138A2EF0208
:10096300120138EDEF021201382BF0021201386840
:10097300F00212013896F0021201383DF102120121
:100983003847F10212013854F10212013887F1029B
:1009930012013849F20212013855F2021201386D80
:1009A300F20212013877F2021201385CB30312012A
:1009B300386AB30312013882B3031201389AB303BE
:1009C300120138D6BC0112013874BD01120138EC92
:1009D300BD0112013801BF011201383BBF011201F1
:1009E30038E4BF01120138B9C0011201381DC20138
:1009F30012013874C201120138FBC201120138E23C
:100A0300C3011201382FC401120138BDC401120100
:100A130038E1C401120138B6C601120138F7C60124
:100A230012013819C7011201389AC701120138841B
:100A3300C8011201384AC901120138E2CD0212017C
:100A430038B4CE021201385DCF02120138A0CF02B2
:100A53001201382DD002120138B9D0021201389A8E
:100A6300D102120138C9D102120138C5D2021201D2
:100A7300380DD3021201380FD40212013853D402B5
:100A830012013879D4021201380AB503120138244D
:100A9300FC021201383AFC0212013860FC02120116
:100AA3003888FD0212013892FD02120138EBFE0272
:100AB300120138EBFF02120138D1DF0212013806AE
:100AC300E10212013839E10212013883E102120115
:100AD3003841E30212013879AD01120138DCAD016E
:100AE30012013821AF0112013831AF01120138541C
:100AF300AF011201389FAF0112013844B001120156
:100B0300383AB10112013804B2011201387CB30141
:100B1300120138BEB3011201385CB401120138A9C5
:100B2300B401120138CFB401120138BDB60112016C
:100B330038C2B601120138A3B801120138F7B8015F
:100B430012013859B90112013881B901120138254E
:100B5300BA01120138E7BA0112013818BB011201B8
:100B6300381BBB0112013863BB01120138A5BB015D
:100B73001201380CBC01120138AC9C03120138BFBE
:100B83009C03120138D89C03120138239D031201E0
:100B930038FE9D031201388D9E03120138D89E033F
:100BA300120138B42C00120138C02C00120138F99C
:100BB3002C001201383E2D00120138F52D001201D0
:100BC300387B2E00120138E02E001201380C2F0062
:100BD300120138452F0012013859310012013835FE
:100BE3003300120138203500120138573600120144
:100BF30038B73800120138A33900120138E93A0036
:100C0300120138F63B00120138133C001201384B35
:100C13003C00120138653C00120138CD3C00120142
:100C23003867410012013808420012013859420066
:100C3300120138804200120138CE4200120138EC12
:100C430042001201384043001201381944001201D6
:100C530038A04500120138284600120138BAE902CB
:100C6300120138C4E9021201388FEA02120138AACC
:100C7300EA02120138D0EA0212013814EB0212011F
:100C8300384CEB0212013875EB02120138EEEB021D
:100C930012013803EC0212013818EC021201384F2A
:100CA300EC0212013863EC0212013894EC021201D7
:100CB30038CEEC02120138FAEC0212013850ED0280
:100CC300120138A4ED02120138EDED0212013817BA
:100CD300EE021201383CEE02120138A18803120120
:100CE300386B89031201384E8A03120138C48A0310
:100CF300120138068B03120138338C031201387E3C
:100D03009A02120138A79A02120138C09A021201FC
:100D130038059C02120138E39C02120138029D023D
:100D23001201388F9D02120138D29D021201381F21
:100D33009F02120138BE9F021201383DA202120126
:100D430038D4A202120138A8A3021201388AA402DD
:100D5300120138F6A50212013889A6021201385988
:100D6300AF03120138C2AF0312013816B0031201E8
:100D7300383DB0031201380080031201386D80033F
:100D8300120138B88003120138AD8103120138A96A
:100D93008203120138938303120138FDF501120116
:100DA300383FF60112013819F701120138F2F70141
:100DB300120138EDF801120138CCF901120138386B
:100DC300FA01120138FFFA011201386AFB0112011C
:100DD30038D1FB01120138FCFB011201386DFC0113
:100DE30012013800FD0112013869FD011201387E3C
:100DF300FD01120138C6FD01120138DFFD011201A8
:100E03003844FE0112013847FE01120138EA930308
:100E13001201381294031201385094031201380E50
:100E23009503120138799503120138959503120140
:100E330038BD9503120138ED9503120138FC950373
:100E43001201387696031201389C9603120138FD7D
:100E5300D901120138DADB01120138D5DD011201A3
:100E630038A8DE01120138F3DE011201383EDF013A
:100E730012013850DF0112013890DF01120138C529
:100E8300DF0112013811E00112013840E0011201C3
:100E93003863E001120138B0E00112013839E10191
:100EA30012013846E30112013831E50112013874A9
:100EB300E501120138D9E6011201381AE7011201DE
:100EC300388DE701120138D9E70112013804E8012E
:100ED30012013800A7021201382BA702120138129F
:100EE300AE0212013836B002120138F1B10212011A
:100EF300384EB3021201388F4600120138264700DC
:100F0300120138534700120138994700120138D8AB
:100F130048001201386F4A00120138E94A001201F1
:100F230038044B00120138794B00120138A84C00E9
:100F3300120138034E00120138054F0012013862C6
:100F430050001201387B5000120138D850001201B2
:100F530038BA5100120138ED51001201385D5200C8
:100F6300120138D75200120138265300120138F209
:100F73005300120138F75400120138D655001201FC
:100F830038615600120138CF56001201384357001A
:100F93001201386C57001201382B5800120138A582
:100FA3005900120138C25900120138E159001201E7
:100FB30038725A00120138975A00120138BF5A008A
:100FC3001201383A5B00120138945B00120138E8D1
:100FD3005C00120138A55D00120138785E00120131
:100FE300382EE8011201387EE8011201388AE8013F
:100FF30012013867E90112013897E901120138CF6C
:10100300E9011201384EEA0112013886EA011201A0
:1010130038D8EA0112013815EB011201383AED0113
:1010230012013866EF0112013861F1011201383CF7
:10103300F301120138EC7F00120138C89901120143
:1010430038129A01120138F19F0112013872A1017D
:10105300120138D1A701120138CCA80112013809B5
:10106300A9011201382CA9011201386EA90112013C
:101073003877A90112013881A9011201386DAA013B
:1010830012013861AB01120138A65E001201381E4D
:10109300690012013824690012013830700012010E
:1010A300384D9003120138E39003120138F990038D
:1010B300120138739103120138C9910312013807E1
:1010C3009203120138649203120138E19203120170
:1010D30038EA9203120138F6920312013809930396
:1010E3001201384593031201385B9303120138BA96
:1010F30093031201385584031201386284031201E9
:10110300387C8403120138BB8403120138F9840349
:101113001201385E85031201387385031201387E8C
:1011230085031201388B8503120138A2850312014E
:1011330038B08503120138BB8503120138C7850314
:10114300120138D68503120138E1850312013804F0
:101153008603120138AD8603120138BD86031201DE
:1011630038D78603120138F4860312013810870337
:101173001201383587031201383F870312013853B0
:101183008703120138728703120138D387031201D0
:1011930038D98703120138DF8703120138E5870343
:1011A300120138F18703120138248803120138052C
:1011B3008002120138878002120138308102120145
:1011C300387882021201388684021201386C850253
:1011D300120138A18502120138C385021201386C4D
:1011E30086021201383C8802120138658802120116
:1011F30038DD88021201380F89021201381C890276
:101203001201386789021201388B8902120138DC16
:101213008B02120138E68C02120138428D02120150
:10122300387FCB0112013890CC0112013874CD0103
:101233001201387ECD01120138A0CD01120138AC64
:10124300CD0112013850CF011201387DCF011201B7
:101253003893D001120138E8D00112013837D20196
:101263001201380CD30112013868D301120138D3AB
:10127300D30112013808D4011201384BD4011201F1
:101283003815D7011201382DD701120138BED70105
:10129300120138CCD70112013819D80112013827AD
:1012A300D80112013893D8011201380ED901120165
:1012B3003865D90112013871B30212013893B302B0
:1012C300120138A4B50212013863B8021201388D35
:1012D300B9021201384BBA0212013837BB021201AC
:1012E30038BAA703120138DFA70312013855A80340
:1012F300120138C5C602120138CEC602120138D710
:10130300C602120138AFC70212013860C9021201C6
:101313003890C902120138BBC902120138EBC90265
:1013230012013816CA021201384ACA02120138766B
:10133300CA02120138B9CA02120138E4CA02120100
:10134300382BCB0212013880CB02120138C2CB02F8
:101353001201381CCC0212013847CC021201389614
:10136300CC02120138C6CC02120138F1CC021201B0
:10137300381FCD0212013842CD0212013893B50352
:10138300120138BFB503120138ECB503120138F668
:10139300B50312013806B603120138BF7F001201EC
:1013A30038DBFF01E066701008A3E066700A08A34B
:1013B300E066700408A3E06622C3E7960809E7968F
:1013C3000809E7960809E79622C3E09608A3E09682
:1013D30008A3E09608A3E09622C008C3E096F508A8
:1013E30008A3E096420808A3E096420808A3E09603
:1013F30045087001D3D00822080808E630E7111227
:101403001BF0121413080808C64480C618181822C3
:10141300181818E9799EC608CAC608CBC608CCC6F0
:10142300C370207996CACBCC7019798ECBCC70134C
:101433007986CC700EF9802ACA33CACB33CBCC332E
:10144300CC331930E7F2CCCBCA3350147004EA30F2
:10145300E00DE4CA3ACACB3BCBCC3CCC500209C327
:10146300E913C6CC182313C6CB18C6CA18C6F9226B
:101473001214B320F01430E72B74FFFCFBFA747FD3
:101483008022E4FCFBFA7480801AB48008BC00F26A
:10149300BB00EF800F50EBF9E4C39AFAE49BFBE443
:1014A3009CFCE499C6CC18C6CB18C6CA18C6F92248
:1014B300E4C9C608CAC608CBC6D3330308CCC633AF
:1014C30092F0C3947F402E94184019C9B90704CAF7
:1014D300CBCC225025C309CA33CACB33CBCC33CCB4
:1014E30033D9F422F4600DC9CCC313CB13CBCA1385
:1014F300CAD9F6CC22E4FCFBFA2214FCFBFA22E65E
:10150300C33318461846184622E7C3331947194709
:10151300194722181818E6084608700AE608C33364
:101523007005E633F4220822191919E709470970EF
:101533000AE709C3337005E733F4220922E60846B4
:1015430008C3134608336002E633F422E709470968
:10155300C3134709336002E733F4220012154060D6
:101563004F12154F6012E7548066F612151670116C
:1015730012150C703B090909F4F618F618F618F65B
:101583002212152B701512150208080860EAE644AA
:101593007FF618768018E4F618F622121502601604
:1015A30012150C7012E4F608F608F608E65480F6F5
:1015B30009090918181822EAC0E0EBC0E0ECC0E002
:1015C300EDC0E0E687F0A4FBACF008E687F0A42CBE
:1015D300FCE435F0FA1809E687F0A42C4B6002749A
:1015E30001CA35F0FCE433FB09E687F0D2F7A42CFB
:1015F300CB35F0FC1908E687F0A42BCC35F0FBE4DF
:1016030033FD0819E687F0D2E7A42C4ACB35F0CD99
:101613003400FC09E687F0D2E7A42DCC35F0FDE4D5
:1016230033FA0918E687F0D2F7A42CCD35F0CA3483
:1016330000FC08E687F0D2E7D2F7A42ACC35F07A8B
:101643007E20E70B0ACB33CBCD33CDCC33CC33CB9E
:101653003350147004ED30E00ED2F1E4CD3DCDCC27
:101663003CCC3B5005DA05C2F1EB547FC63308E6A8
:101673003392F0FBE73309E733C39A502D2B7019EC
:101683000C0D4C4D70151806E608C333700D20F190
:101693000AA2F013F6E418800B4024E4F630F002BB
:1016A300768018F618F618F68024D33B145010747D
:1016B300FFA2F013F6187680E418F618F6800FA24E
:1016C300F013F618E63303F618ECF618EDF6D0E04F
:1016D300FDD0E0FCD0E0FBD0E0FA2212154F6046CB
:1016E300121540603DE9687008F618F618F618F60A
:1016F30022748067F7121712090909748067F722A9
:10170300121540601D12154F7005191919801A1210
:101713001516701F12152BC37003E66733191919B9
:1017230040071818182208080874FFF618F618F668
:1017330018F62212152B601712150C702192F01255
:1017430015027019501720F014080808090909E751
:10175300F61819E7F61819E7F61819E7F62212151D
:101763000260E6E869701F0808E62480F608E4369C
:10177300F618547FB47F0CE654806007F6E418F63D
:1017830018F622181822E9C6CC08C6CD08C6CE081A
:10179300C6CFC0E0E8C0E0EAC0E0EBC0E009E9F88A
:1017A30009E7FA09E7FBE6F918E6F8C3EC98ED99BF
:1017B300EE9AEBC2E7F5F0EFC2E795F0500E600C3E
:1017C300EBCFFBEACEFAE9CDF9E8CCF8EAA2E7D20F
:1017D300E7FAEB33FB13F5F0EEA2E7D2E7FEEF33C4
:1017E300FFC5F013A2E730E601B313C5F0C3C0E0B1
:1017F300C0F07F00C39BFB605B9418600C401AD061
:10180300E023F9D0E0F80218E18AF0E9486003D256
:10181300F0E4AFF0FAF9F8803BEB30E40D89F0EA3D
:101823006003D2F0E4AFF0F9CAF8EB30E30D88F0CF
:10183300EF6002D2F0AFF0E4CAC9F8EB54076014CA
:10184300FBC3EA13FAE913F9E813F8EF135002D2D2
:10185300E0FFDBEDD0E0C0E030E739C3E49FFFF504
:10186300F0EC98FC42F0ED99FD42F0EE9AFE42F066
:10187300D0E0F9D0E0F8E5F0607AE923F9EE20E76B
:1018830042D8028067C3EF33FFEC33FCED33FDEE48
:1018930033FE80EAEC28FCED39FDEE3AFED0E0237E
:1018A300F9D0E0F84002801BC3EE13FEED13FDEC0C
:1018B30013FCEF135002D2E0FF08B800067F7F74D9
:1018C300FF802EEF3350178CF020F00260100CBC19
:1018D300000C0DBD00080EBE000408E860DFE9330C
:1018E300E813FFEE2313FE4F4D4C8008E95480FFAD
:1018F300E4FEFDFCEE33EF33F47004FCFD7E80D098
:10190300E0FBD0E0FAD0E0F8D0E0CFC618CEC6189E
:10191300CDC618CCC6F92212154070041818182227
:1019230012154F700D74FFF61819F61819F61819D9
:10193300F622E7548066F6121502700F12150C702A
:10194300F014F608F608F608F680D112150C700CA0
:10195300F608F608768008E6447F80EC12152E70B0
:101963000C12151960BFE65480F6E480BB121519FA
:10197300700519191980A5E869700C763F187680EF
:1019830018F618F6E8F922E6CDC0E018ECC0E0E658
:1019930033CD33CDD313F6E719FCE7191933CC3321
:1019A300C3947F400ECD9D502408E65480F6E4187E
:1019B300F6800FF4043D14501408E6447FF61876BD
:1019C30080E418F618F6D0E0FCD0E0FD22CCD31367
:1019D300CCFD18E4C6CBC0E018E4C6CAC0E00808D2
:1019E300ED08C633E613F618E433C675F003C3CA2D
:1019F30097CA09CB97CB199C40047D08802EBD0064
:101A030003021AC316B6FF050606081618C3CA331F
:101A1300CACB33CB33CA27CA09CB37CB193CC37DD7
:101A230008803E187D0820E75CC633C6CA33CACB9C
:101A330033CB33DDF1D5F0EB30E77BCA97CA09CB63
:101A4300974ACB199C406F4B7025E620E0218066B6
:101A5300187D08C3CA97CA09CB97CB199CD3C63341
:101A6300C6CA33CACB33CB3350C9DDE7D5F0E1D394
:101A7300E4C636C608C636C608C636C608C636C65F
:101A83001818188031C3CA97CA09CB97CB199CB3CE
:101A93004097C633C6CA33CACB33CB33DD34D5F014
:101AA3002EC6A2E0C640C8CA27CA09CB37194A7056
:101AB300BECB3CB480B90808E63308E633601F1890
:101AC3001818D0E0FAD0E0FBD0E0FCD0E0FD2218FB
:101AD3007D08CA27CA09CB37CB193CD3808013F6BC
:101AE30018E4B67F11F618B6FF0EF618C60470D2C6
:101AF3000808768080CAF618F618F680C508080824
:101B0300EAC0E0EBC0E086F0E7A4FA180986F0E744
:101B1300A42AFA180986F0E7A42AFA180986F0E736
:101B2300A42AFA1986F0E7A4FBE5F02AFA19088635
:101B3300F0E7A42BFBE5F03AFA190886F0E7A42BAB
:101B4300FBE5F03AFA18180986F0E7A4C5F02BFB79
:101B5300E43AFA1908E7C5F0C6A426F6E5F03BFB1C
:101B6300E43AFA1886F0E7A4F6E5F00826F6E43B33
:101B730008F6E43A08F6D0E0FBD0E0FA22E4CFC05E
:101B8300E0E4CEC0E0E4CDC0E0E4CCC0E075F020FA
:101B9300C3E633F608E633F608E633F608E633F62B
:101BA300181818EC33FCED33FDEE33FEEF33FFC3AF
:101BB300EC9709ED9709EE9709EF97191919400F5B
:101BC300FFEC97FC09ED97FD09EE97FE191906D571
:101BD300F0BEECF709EDF709EEF709EFF71919195C
:101BE300D0E0FCD0E0FDD0E0FED0E0FF22181818D2
:101BF300E4C396F608E496F608E496F608E496F647
:101C0300226016080808C6C313C618C613C618C62A
:101C130013C618C613C6D5E0EA22700908080822BD
:101C23006016181818C6C333C608C633C608C633A9
:101C3300C608C633C6D5E0EA22E627F60809E63722
:101C4300F60809E637F60809E637F622E026F6082D
:101C5300A3E036F608A3E036F608A3E036F622E062
:101C630026F008A3E036F008A3E036F008A3E03638
:101C7300F022C3E697F60809E697F60809E697F611
:101C83000809E697F622C3E096F008A3E096F00869
:101C9300A3E096F008A3E096F022E056F608A3E04E
:101CA30056F608A3E056F608A3E056F622E056F0EF
:101CB30008A3E056F008A3E056F008A3E056F0228C
:101CC300E0F608A3E0F608A3E0F608A3E0F622E6B0
:101CD300F008A3E6F008A3E6F008A3E6F022E0FA92
:101CE300A3E0FBA3E0FCA3E0FD22EAF0A3EBF0A357
:101CF300ECF0A3EDF022CAC0E0E6F0A308DAFAD0D4
:101D0300E0FA22CAC0E0E0A3C582CCC582C583CD78
:101D1300C583F0A3C582CCC582C583CDC583DAE66E
:101D2300D0E0CA22C3E498F8E499F9121D6880262A
:101D3300C3E49AFAE49BFBE920E7E9121D68E498FF
:101D4300F8E499F922C3E498F8E499F9121D68E4D8
:101D530098F8E499F9C3E49AFAE49BFB22EB20E7B1
:101D6300CFE920E7E0B90010BB0008E88AF084F867
:101D7300AAF022E4FBC8FA22EB70227B10C833C816
:101D8300C933C9335007C39AC3DBF280069A5001A3
:101D93002ADBEAC833F4C8C933F4C9FA2275F00858
:101DA300E4C833C8C933C933C99AC99B5004C92A83
:101DB300C93BD5F0ECFBC833F4C8E4C9FA22600D83
:101DC30008C6A2E713C618C613C6D5E0F322600CF3
:101DD30008C6C313C618C613C6D5E0F4227004227E
:101DE300600D18C6C333C608C633C6D5E0F418223F
:101DF300251810AF08F518400215198008F518408A
:101E0300021519D2AF22C0D0251810AF08F518500B
:101E13000205198008F51850020519D2AFD0D02257
:101E23002518F58210AF08F518400215198008F53A
:101E33001840021519D2AF851983222518F582E4BB
:101E43003519F58322E4732518C582C0E0E51934FA
:101E5300FFC583C0E0E518C3958224F810AF088559
:101E630083198582188008858319858218D2AFCE9D
:101E7300F0A3E520F0A37808E608F0A3DEFAEFF07C
:101E8300A3E58124FAF8E608F0A3E608F0A3E60840
:101E9300F0A30808E608F0A3E608F0A3158115816E
:101EA300D0E0FED0E0F8158115811581E8C0E0EEA1
:101EB300C0E0222518C582C0E0E51934FFC583C000
:101EC300E0E518C3958224F910AF0885831985824C
:101ED300188008858319858218D2AFCEF0A3E52038
:101EE300F0A37808E608F0A3DEFAEFF0A3E5812477
:101EF300FBF8E608F0A3E608F0A30808E608F0A359
:101F0300E608F0A315811581D0E0FED0E0F8158135
:101F13001581E8C0E0EEC0E022851983851882E0D0
:101F2300A3FEE0A3F5207808E0A3F608DFFAE0A318
:101F3300FFE0A3C0E0E0A3C0E0E0A3C0E0E0A3C0F3
:101F4300E0E0A3C0E010AF088582188583198008FC
:101F5300858218858319D2AFD083D082020135855B
:101F63001983851882E0A3FEE0A3F5207808E0A397
:101F7300F608DFFAE0A3FFE0A3C0E0E0A3C0E0E0DF
:101F8300A3C0E0E0A3C0E010AF08858218858319E1
:101F93008008858218858319D2AFD083D08222C06E
:101FA300D02518C582C0E0E51934FFC583C0E0E53C
:101FB30018C3958224F310AF08858319858218808E
:101FC30008858319858218D2AFC8F0A3E9F0A3EA84
:101FD300F0A3EBF0A37908E709F0A3D8FAECF0A398
:101FE300EDF0A3EEF0A3EFF0A3D0E0F0A3D0E0F088
:101FF300A3D0E0F0A3E520F0A3E5F0F0A322851938
:1020030083851882E0C0E0A3E0F9A3E0FAA3E0FB34
:10201300A37808E0F608A3DFFAE0FCA3E0FDA3E061
:10202300FEA3E0FFA3E0C0E0A3E0C0E0A3E0F5D09F
:10203300A3E0F520A3E0A3F5F010AF08858319858D
:1020430082188008858319858218D2AFD082D08305
:10205300D0E0F8D0E0327404800674028002740188
:10206300C0E0F404121E23D0E0121CF92274048091
:102073000474028000CCC0E0EDC0E0E518C39CCC42
:10208300AD1950011D10AF068C188D1980068C18E0
:102093008D19D2AF121D06D0E0FDD0E0FC22D08313
:1020A300D082E9C0E0E493A3C386F0C5F095F0F9CC
:1020B30008E493A386F0C5F095F0700BE493A3C3F3
:1020C300994005E9048002A3E475F002A42582F592
:1020D30082E5F03583F583D0E0F9E493A3C0E0E42F
:1020E30093C0E022D083D082ECC0E0EDC0E0E49363
:1020F300A3FCE493A3FDED4C600D122133EC24FF0C
:10210300FCED34FFFD80EFE493A3FCE493A3FDED2A
:102113004C600D122172EC24FFFCED34FFFD80EFC7
:10212300D0E0FDD0E0FCE493A3C0E0E493C0E02260
:10213300C0E0C3E49396087401939618400FE493A8
:1021430066700808740193661870007019A3A3C31E
:10215300E49396087401939618A3A3400DD0E0D09E
:10216300E0D0E0022123A3A3A3A3A3A3D0E022C032
:10217300E0C0F088F0E49366700808740193661871
:102183007000A8F0A3A3700BD0F0D0E0D0E0D0E0B3
:0A219300022123A3A3D0F0D0E02224
:1021A000C0E074F2121FA2A2AFE433FED2AFE58901
:1021B000A2E04006E589A2E1500312074D758900AF
:1021C000758900C2C5751A00EEA2E092AF7F0102C8
:1021D0002001C0E0C0D0E8C0E0E5A8D2AFC2C7751A
:1021E0001A00A2E792AFD0E0F8D0D0D0E03274F578
:1021F000121EB6EAFEEBFFEE2434F8EF3400F98845
:10220000088909EE2435F582EF3400F583E0F8EE15
:102210002437F582EF3400F583E0F50AEC850AF007
:10222000A4FCAAF0850AF0EDA42AFDE82CF8E43D10
:10223000F97A257B00121D68EA850882850983F0FA
:102240005407F87401B800028004C333D8FCC0E01E
:10225000E0131313541FF8EE28F8EF3400F9E824C4
:102260005DF582E93400F583D0E0F8E0586008EECF
:102270002434F582EF801EEE2436F582EF3400F52B
:1022800083E0F5F0EA84A8F0EE28F8EF3400F9E8EE
:102290002438F582E93400F583E0F97F04021F62F7
:1022A00074F5121EB6EAFEEBFFEE2434F582EF342D
:1022B00000F583E0C0E0EE2435F582EF3400F583CD
:1022C000D0E0F08E828F83A3A3A3A3A3A3A3C08295
:1022D000C0838E828F83A3A3A3A3A3E0F8A3E0F916
:1022E000D083D082E0C398F508A3E099F509EE24E5
:1022F00080F582EF3400F583E064017069EE24819B
:10230000F582EF3400F583E0F8A3E0F98E828F8345
:10231000A3A3A3A3A3A3A3E0FCA3E0FD8E828F83CA
:10232000A3A3A3A3A3E0FAA3E0FBC3EA9CEB9D5005
:1023300027C3EC98ED99402EC3EA98EB9950277C7F
:10234000567D07EEFAEFFB120F93EE2480F582EF35
:102350003400F583E4F0800EC3EA98EB9940E0C3C3
:10236000EC98ED9950D9EE2434F8EF3400F9E8FCFC
:10237000E9FDEE2435F582EF3400F583E0F8EE2434
:1023800037F582EF3400F583E0F50AE508850AF0B9
:10239000A4F508AAF0850AF0E509A42AF509E825BC
:1023A00008F8E43509F97A257B00121D68EA8C8269
:1023B0008D83F05407F87401B800028004C333D849
:1023C000FCC0E0E0131313541FF8EE28F8EF3400BC
:1023D000F9E8245DF582E93400F583D0E0F8E058AF
:1023E0006008EE2434F582EF801EEE2436F582EF8D
:1023F0003400F583E0F5F0EA84A8F0EE28F8EF3435
:1024000000F9E82438F582E93400F583E0F9122C6C
:102410009D02229BC082C083851882851983E0F8C3
:10242000A3E0F9C3EA9CEB9D5012C3EC98ED9940F0
:1024300019C3EA98EB99501279018010C3EA98EB1E
:102440009940F5C3EC98ED9950EE7900D083D08295
:1024500022EAC39CFAEB9DFB2200000085218785C0
:1024600022C622C0E0C0D0E8C0E0E9C0E0EAC0E097
:10247000EBC0E0ECC0E0EDC0E0C008C009C00AC09D
:102480000BC082C083C0F0759B00906182E0A2E621
:102490004003022541E591A2E640030225417591E2
:1024A000BF90061BE0640570081210CB1210D78095
:1024B000031210D1752100121131E990061CF07938
:1024C00000121125120F097A017B0090061AE0F91B
:1024D00012053D907803E06442600302258A90076C
:1024E000B8E014F0600302258AC2AF1224EE00782F
:1024F0002AD0E0F618D0E0F6E59F5407F970059071
:10250000851680039085127808121CC3E9C4C0E0C8
:102510007829E65508F50808E65509F509740B7899
:1025200008121DD1D0E02508F8906270E0A2E740C3
:10253000F8E8C333906272F0906270E0D2E0F0800D
:1025400049E0A2E55024E591A2E5501E7591DF9087
:10255000061BE0640D701390063DE004F0642870E3
:1025600002E4F07A00E0F91211A3906181E0A2E3A5
:102570005009E5E9A2E3500375E9F7A3E0A2E750AB
:1025800009E591A2E7500375917FD0F0D083D08206
:10259000D00BD00AD009D008D0E0FDD0E0FCD0E0CC
:1025A000FBD0E0FAD0E0F9D0E0F8D0D0D0E032C0F3
:1025B000E0C0D0C082C083906183E0A2E05009E512
:1025C000BFA2E0500375BFFEE0A2E15009E5BFA243
:1025D000E1500375BFFDE0A2E25009E5BFA2E25061
:1025E0000375BFFBE0A2E35009E5BFA2E35003750A
:1025F000BFF7E0A2E45009E5BFA2E4500375BFEFC6
:10260000E0A2E55009E5BFA2E5500375BFDFE0A2F7
:10261000E65009E5BFA2E6500375BFBFD083D08264
:102620008088C0E0C0D0E8C0E0E9C0E0EAC0E0EBEC
:10263000C0E0ECC0E0EDC0E0C0F0E5A7A2E6500FBE
:10264000E5A1A2E6500953A7BF75A1BF122687E5F1
:10265000A7A2E5500CE5A1A2E5500653A7DF75A19E
:10266000DFE5A7A2E15009E5A1A2E1500375A1FDB4
:10267000E5A7A2E2500CE5A1A2E2500653A7FB7524
:10268000A1FBD0F002259874F8121EB675210190B6
:10269000061BE06406701512105F8A828B83A3A369
:1026A000A3A3A3A3E0FAA3E0FB1210B9A2AFE43303
:1026B000FED2AF900621E0640170187A207B009072
:1026C000061AE0F91205C77A207B0090061AE0F995
:1026D000120543906182E0D2E6F09007B7E06021F6
:1026E00085C6228016900620E064017008E5C65475
:1026F000F84405F5C653BEFC12245C7401652160E4
:10270000E4EEA2E092AF7F01021F62008E238F24CD
:10271000858228858327851882851983E0CEA3E0EA
:10272000CF852882852783EBC9EAC8EDCBECCA7533
:10273000F010C3E833C8E933C9EA33CAEB33CBC37B
:10274000EA9EF526EB9FF525B35004AB25AA26ECAF
:1027500033CCED33CDD5F0DAAE23AF242274EB12B7
:102760001EB674FA121DF38A088B098C148D15900D
:10277000061BE024F7C3940550069085220228BF6B
:1027800012105F8A0A8B0BAE0AAF0BEE4F7003027A
:1027900028BCAC08AD09851882851983AA82AB8351
:1027A0001210E98E828F83A3A37808121CC3908530
:1027B0005A7808121C9D851882851983780C121C82
:1027C000C390855A780C121C9D7808790C1213BCA2
:1027D000501F7808790C121C759084F67808121333
:1027E000DC4047850810850911850A12850B138086
:1027F00041850C10850D11850E12850F1378107907
:1028000008121C759084F678101213DC501C751099
:10281000007511007512007513017810790C121CE7
:102820007578107908121C3C800890852278101267
:102830001CC374097810121C1D9085767808121C30
:10284000C378107908121B808E828F83A3A3A3A361
:10285000A3A3E0F8A3E0F97AD07B03121D688808EF
:102860008909E4F50AF50B78107908121C3C740408
:10287000121E3EE0F8A3E0F97AD07B03121D68E84F
:10288000FA8A08E4F509781079081213BC50077821
:10289000107908121C7590061BE06408600AE06459
:1028A000066005E06405701C9084F278101213DC59
:1028B00050129084EE7810121C4F80089085327868
:1028C00010121CC38514828515837810121CD274D3
:1028D00006121E097F0E021F6274F7121EB6121036
:1028E000FB9007B5E064017010906245E4F0A3F03E
:1028F00053F4F343FE0C5390F31210A7E5C6548033
:102900004449F5C6E59E547F644970F8906185742A
:102910000FF09007B3E0F47002A3E0604E9007B4AC
:10292000E0600814601B14602E8040750801750972
:10293000009007B3E07808121DE0E508F4528080AB
:102940002A7508017509009007B3E07808121DE0A8
:10295000E508F4529080147508017509009007B3DA
:10296000E07808121DE0E508F452A079007F020229
:102970001F6274F7121EB6E9FEEAFF74016E700C56
:102980007A807B0090061AE0F912053D902CACE4A9
:1029900093F46008E493F9120EFD800953C680E5B4
:1029A0009E547F70FA1210AD9007B5E06401700379
:1029B000120F159007B3E0F47002A3E0604B90078C
:1029C000B4E0600814601A14602C803D750801752D
:1029D00009009007B3E07808121DE0E50842808006
:1029E000287508017509009007B3E07808121DE00A
:1029F000E508429080137508017509009007B3E05F
:102A00007808121DE0E50842A01210FB12105F8A40
:102A1000088B09A808A909E8496015E5E170FCE8F8
:102A20002414F582E93400F583E0F46003E0F5E175
:102A300074016F700A7A0190061AE0F91205970284
:102A4000296D74F1121EB68A088B098C0A8D0B74DD
:102A50000F121E3E780C121CC390855A7808121C67
:102A60009D90855A780C121C9D7808790C1213BC25
:102A700050157808790C121C759084F6780812139A
:102A8000DC401579018013780C7908121C7590844C
:102A9000F6780C1213DC40EB79007F08021F627499
:102AA000ED121EB68A088B098C0A8D0B7413121E48
:102AB0003E780C121CC390855A7808121C9D908594
:102AC0005A780C121C9D780C79081213BC401178AE
:102AD00008790C121C75AA08AB09AC0AAD0B802250
:102AE0007510007511007512007513017810790CBE
:102AF000121C7578107908121C3CAA10AB11AC128C
:102B0000AD137F0C021F6290855A7808121CC38A8D
:102B1000828B837808121CB07F04021F6274F51246
:102B20001EB68C828D837808121CC38A828B8378B0
:102B300008121C89EA2404F8EB3400F98C828D8396
:102B4000A3A3A3A3E0FCA3E0FD88828983C3E09C48
:102B5000F0A3E09DF088828983C3E09420A3E094F1
:102B60004E402290856E7808121CC38A828B83782F
:102B700008121C628A828B83A3A3A3A3E02420F003
:102B8000A3E0344EF0808074F5121EB6E9FE900783
:102B90006DE0FAA3E0FBEEC333F8E433F9740528E3
:102BA000F582748439F583E02AF508A3E03BF50942
:102BB000780812205D90853E121CE112270C7402E9
:102BC000121E098A088B098C0A8D0B741078081262
:102BD0001C04AA08AB097F04021F6274F1121EB61E
:102BE0008A0C8B0D8C0E8D0F740F121E3EE0FAA313
:102BF000E0FB7411121E3EE0F508A3E0F509741322
:102C0000121E3EE0FEA3E0FF780812205DEA2401D8
:102C1000F508EB3400F509E4F50AF50B780C7908B2
:102C2000121B0090854E7808121CC3780C7908128C
:102C30001B00AA0CAB0DAC0EAD0F12270C740212C8
:102C40001E098B09EA450960047A0180027A00ECCA
:102C50002AFCED3400FDECF8EDF97A717B02121DCF
:102C60006888088909E4F50AF50B8E828F83780855
:102C7000121CD2ECF8EDF97A717B02121D688A08F9
:102C80008B0974057808121DE08E828F83A3A3A39D
:102C9000A3E508F0A3E509F07F08021F62C082C027
:0B2CA00083E9906000F0D083D0822216
:102CAC00FFFFFFFFFFFFFFFFC082C083E9900BB760
:102CBC00F0022F3874F7121E4AE9900539F07C7136
:102CCC007D057AFF7BFF120C3390053A74FFF0A35D
:102CDC00F0A3E4F0A3F07905120BBB900539E0F9F1
:102CEC00120AE37A517B0C120E13023C4674F41256
:102CFC001E4A8A088B09EB54806030900539E0F944
:102D0C001205258A0A8B0BAE0AAF0BEE4F60138EA1
:102D1C00828F83E064B07003120BD3EEFAEFFB12D8
:102D2C000513AA08E5096480FB80047A007B000285
:102D3C002F0774F2121E4A74FC121DF3EAFEEBFF0D
:102D4C007412121E3E12412DEE4F7003022DE174CF
:102D5C0002121E3EEEF0A3EF123142ECF0A3ED1284
:102D6C003142AA82AB83120ADDE9F50A706AE508E2
:102D7C00450960648E828F83124113EE4F60567A40
:102D8C00067B0012057F8A0C8B0DA80CA90DE84957
:102D9C007005750A13804188828983E4122DEEEE4A
:102DAC00F0A3EF12413EE508F0A3E509F090053FD2
:102DBC00122E7590053F7005123BF0801B123BDE06
:102DCC008003EAFCEBFD8C828D83122E7570F38CE4
:102DDC00828D8380E3750A02A90A7404121E09020B
:102DEC00432DF0A31240E4A32274F2121E4A890A66
:102DFC00E975F017A4FEAFF090053EE4F090053CA9
:102E0C00122E75600A12058590053CE4F0A3F0EED5
:102E1C00FAEFFB12057F8A088B09EA4509602FEE51
:102E2C00FCEFFD790012050190053CE508F0A3E5E7
:102E3C0009F07B008008122E5FE4F0A3F00BEBC3CB
:102E4C00950A40F2E50A90053EF07900800279136C
:102E5C0002432DEB75F017A4F8A9F090053CE0287F
:102E6C00FAA3E0398A82F58322123882EA4B227463
:102E7C00F4121E4A740C121E3E124108FEE9FF7534
:102E8C000800750900800CE5082401F508E50934F3
:102E9C0000F509C3E5089CE5099D503285080A85B3
:102EAC00090B7403780A121DE0EA250AF8EB350BBE
:102EBC00F988828983A3A3A3A3A3A3123CC5EE65BF
:102ECC000A7003EF650B70BFE8FAE9FB80047A0027
:102EDC007B00802774F4121E4A7900EAA2E0501B92
:102EEC007508BA750984780812205D7C047D007A17
:102EFC00B97B0B120BB57402121E097F04021F1C46
:102F0C00C082C08390053F122F3F601C888289834A
:102F1C00A3A3E06A7003A3E06B8882898370E8A3A3
:102F2C00A3A3A312387E80047A007B00D083D082C6
:102F3C00020135124413E8492274EE121E4A74FC45
:102F4C00121DF3EAFEEBFF851882851983E4F0A3CA
:102F5C00F0EE2402123BD0EE24051240EBEE2404DA
:102F6C00F50EEF1234F7E024FE603924FC604624A1
:102F7C00FE605224FE605E24FE700302305824FE74
:102F8C0070030230BC24FE70030230CB24FE7003AD
:102F9C000230DA24FC70030230E924FE70030230A4
:102FAC00F80231359005587417F0A3E412314A1227
:102FBC00085B023135851882851983AC82AD83128A
:102FCC000BD9023105851882851983AC82AD831229
:102FDC000BDF023105850C08850D097402121E3EAB
:102FEC00AC82AD8385088285098312387E120B0171
:102FFC008A0C8B0DAC0CAD0DEC4D603BE4F50CF577
:10300C000D780C12205D750C58750D05780C12207E
:10301C005D750C59750D05780C12205D7408121E27
:10302C003E12207412458F121E09E9F50C700B121A
:10303C003874120873800F750C018508828509831A
:10304C00123138123BF0850C080231087402121E42
:10305C003EAC82AD83850C82850D83123649603C73
:10306C00850C82850D83A3A31220747510587511DD
:10307C0005781012205D7510597511057810122005
:10308C005D7408121E3E12207412458F121E09E93F
:10309C00F509700B123874120879800F75090185C7
:1030AC000C82850D83123138123BF0850908804C57
:1030BC00851882851983AC82AD83120BE5803A8525
:1030CC001882851983AC82AD83120BEB802B85188B
:1030DC0082851983AC82AD83120BF1801C8518821A
:1030EC00851983AC82AD83120BF7800D8518828510
:1030FC001983AC82AD83120BFDE9F508E508602954
:10310C008E828F83A3E06414601F850E82850F83EB
:10311C00E090055812314212440F900559123BF0C1
:10312C00E508A312314A120855023ADF12441385FE
:10313C00188285198322F085188285198322F07CE8
:10314C00587D05850A82850B831238822274EE1213
:10315C001E4A74FC121DF38A0A8B0B8C0E8D0FEA1F
:10316C002405F508EB3400F5097C157D0079007A0F
:10317C00587B05120501E5082402F50CE5091240FF
:10318C00EE8518828519838582108583117810123B
:10319C00205D850882850983A3A3A3A31236401260
:1031AC00205DE5082405F510E5093400F5117810CB
:1031BC0012205D850C82850D83123995120AFB74E1
:1031CC0006121E098A108B11AE10AF11E50A2402EB
:1031DC00F50AE50B123BD3EE4F7003023317801741
:1031EC007402121E3E12387E88828983EAF0A3EBA9
:1031FC00F0900558E004F0900558E0C394054003A6
:10320C00023317E4F510F511781012205D7510419A
:10321C00751105781012205D751042751105781026
:10322C0012205D7406121E3E1220747910EEFCEF13
:10323C00FD124591121E09E9705E8508828509838D
:10324C00A3A3A3A3A3A3A3E0F8900541E06870484F
:10325C0012364012205D7C427D05E5082408FAE513
:10326C00093400FB1204FB7402121E09E960298E5A
:10327C00828F83A3A3A3A312387E900558E0F51088
:10328C0074027810121DE074592510F582740535FE
:10329C0011F583EAF0A3EBF07402121E3E85821046
:1032AC00858311781012205D7402121E3E12207458
:1032BC00850C82850D831238A4121E098A108B117D
:1032CC00AE10AF11900558E0F5107511007402782E
:1032DC0010121DE074582510F874053511F9888208
:1032EC008983A3122E7570030231E3E824030808C6
:1032FC0008E93400F9EE4F60030231EC88828983CF
:10330C0074FFF0A3F0900558E004F0900558E060CD
:10331C000A1238741208677900800B8508828509B7
:10332C0083123BE7790A023ADF74EA121E4A74FEF2
:10333C00121DF38C128D13EA2405F50CEB12457952
:10334C00124117750800750900EA2402F510EB34D8
:10335C0000F51185188285198385820A85830B787F
:10336C000A12205D850C82850D83A3A3A3A31235BD
:10337C000D12205DE50C2405F50AE50D123BD37802
:10338C000A12205D850C82850D83123511120AFB01
:10339C007406121E098A0A8B0BEA450B7003023461
:1033AC00B2EA2404F50EEB1234F71241178A828B21
:1033BC0083A3A3A3E0F9851082851183123888605A
:1033CC00030234B2E4F514F515781412205D75146B
:1033DC0041751505781412205D7514427515057824
:1033EC001412205D7406121E3E1220747913AC0A5E
:1033FC00AD0B851082851183124597121E09E9F5D4
:10340C000960030234B2900541E0F8E5087009E068
:10341C002402900559F08014900559E0FCE8240230
:10342C00FAE43400FBEA6C7001EB707E850882AA2A
:10343C0082123637941412362F506B850E82850FFC
:10344C0083E0C0E0745A2A1234EED0E0F00508850F
:10345C000E82850F83A3E0C0E085080A745A250A02
:10346C001234EED0E0F0050890054112350D122013
:10347C005D7C427D0585080A745A250A12350112B5
:10348C001E09900541E02508F50874FF6E70037461
:10349C00FF6F6012EE24010EEF3400FFE508C394B9
:1034AC0014500302335FE5086013123892851082C2
:1034BC0085118312387E12086D79008014E509702D
:1034CC000375090A851282851383EEF0A3EFF0A928
:1034DC00097402121E097F0E021F1C85080C745AF7
:1034EC00250CF58274053400F583223400F50F8524
:1034FC000E82F58322FA74053400FB1204E974027F
:10350C002212414D22A3A312351722123BDEFDEEEF
:10351C00FAEFFB2274EE121E4A74FE121DF38C0E8F
:10352C008D0FEA2405F50CEB1240EE750B0090059F
:10353C0058E4F0F50AEA2402F508EB3400F50980AA
:10354C0044900558E0FA900541E0F812363794178C
:10355C0012362F400D900558E0F87416C39890055C
:10356C0041F012364012205D7C427D0574592AFAD6
:10357C007405123504121E09900541E0F8900558A7
:10358C00E028F0050AE50C2416F582E50D1234F25C
:10359C00E0F8E50AC3985074900558E0C3941650AF
:1035AC006BE50AC333F8E433F9E50C28FEE50D3975
:1035BC00FF851882851983AC82AD838E828F83122E
:1035CC0036497008750B01123BE38050E4F510F599
:1035DC0011781012205D75104175110578101220AC
:1035EC005D751042751105781012205D7406121E5F
:1035FC003E1220747916850882850983124597122C
:10360C001E09E9F50B700302354D80BB7C587D0516
:10361C0085088285098312387E12087FA90B7402F3
:10362C00023AE1E99400C365D03322EA28F8E43485
:10363C0000F9E822E0F510751100781022123AD644
:10364C008A108B11AC10AD11EC4D2274EA121E4A8B
:10365C0074FC121DF38A0C8B0D8C128D13EA24054D
:10366C00F50AEB123BD3750800750900E50A240234
:10367C00F510E50B3400F5117402121E3E85820E16
:10368C0085830F780E12205D850A82850B83A3A398
:10369C00A3A31240F312205DE50A2405F50EE50BF9
:1036AC003400F50F780E12205D851082851183127F
:1036BC003BD9123878120AFB7406121E098A0E8B3B
:1036CC000FAE0EAF0FE50C2402F50EE50D3400F530
:1036DC000F80388882898374FFF005081234E774F0
:1036EC00FFF00508900541E0F50C750D00780C1203
:1036FC00205D7C427D0585080C745A250C12350121
:10370C00121E09900541E02508F508EE4F60278E42
:10371C00828F83A3A3A3E0F9850E82850F831238D1
:10372C0088EE24041240EBE96027850C82850D831A
:10373C0012386A123BF0E5087003023850123892C6
:10374C00850E82850F8312387E1208857900023827
:10375C0065E4F514F515781412205D751441751592
:10376C0005781412205D7514427515057814122015
:10377C005D7408121E3E1220747911EEFCEFFD856B
:10378C000E82850F83124597121E09E9F509709A6E
:10379C00850882AA82EA9005417009E0240490050C
:1037AC0059F08025E0F8900559E0F514E82404FC64
:1037BC00E43400FDEC65147001ED70811236379421
:1037CC001212362F4003023749850C82850D83E097
:1037DC00C0E0745A2A1234EED0E0F00508850C8251
:1037EC00850D83A3E0C0E01234E7D0E01238AD853C
:1037FC00820C85830D780C12205D7404121E3E120F
:10380C0020748510828511831238A4121E098A0C2B
:10381C008B0DAE0CAF0D85080C745A250CF8740585
:10382C003400F9EE4F70030236DF85188285198358
:10383C00E0888289831238ADA3E0C0E01234E7D06F
:10384C00E00236EDE509700375090A850A82850BDD
:10385C008312386A123BF0A90974040234DF124453
:10386C0013851282851383227C587D05850A8285F7
:10387C000B8312388222E0FAA3E0FB221238821268
:10388C000AE9E9F50922900559E0F5F0E50884907C
:10389C000558F07C587D0522123517120B0774045D
:1038AC0022F005088518828519832274EC121E4AB1
:1038BC0074FE121DF38A088B098C0E8D0FEA2405F9
:1038CC00FEEB3400FF123AC0EE24181240EBEA452E
:1038DC000B7003023963123AA950291239888A10E5
:1038EC008B11EA4511606B7912AC0AAD0B8508821D
:1038FC0085098312387E851082851183121E48E952
:10390C00F50A7058E4F50AF50B780A12205D8E82E0
:10391C008F83A3A3E0F50A780A12205DEE2403122C
:10392C003BD0780A12205D8E828F83123995120C4F
:10393C00217406121E09E9F50A7021850C82850D89
:10394C0083E0701F85088285098312387E12088BEC
:10395C008011750A0E8009750A018004E50A60035E
:10396C00123BE3850C82850D83E0600479008002B4
:10397C00A90A7402121E097F0C021F1C851882856D
:10398C001983123882120C0F22123BDEFD8508823D
:10399C008509831238822274EE121E4A74FE121D9F
:1039AC00F38A088B098C0C8D0DEA2405FEEB340090
:1039BC00FF750E00123AC0EA450B7003023A8712EB
:1039CC003AA9502C1239888A0E8B0FEA450F604A9F
:1039DC007912AC0AAD0B85088285098312387E8575
:1039EC000E82850F83121E48E9F50E6003023A8A97
:1039FC00850882850983123CC5AA0AFB123A9B7082
:103A0C00147AFF7BFF123A9B606C88828983E50AEB
:103A1C00F0A3E50BF0750A008007750E0E805F05AC
:103A2C000A90053EE0FAE50AC39A504AE50A75F099
:103A3C0017A4FAABF088828983A3A3E02AFAA3E047
:103A4C003BFB8A828B83123BD9EC4D70D2750A17E3
:103A5C00750B00780A12205DEEFCEFFD1204E97480
:103A6C0002121E09EEFCEFFD8508828509831238CF
:103A7C007E1208918014750E098003750E01124494
:103A8C000B850C82850D83123BF0A90E02362A128F
:103A9C000C038A108B11A810A911E84922E50824FF
:103AAC0002F508E5093400F5098A828B83A3A3A3E8
:103ABC00E0A2E522851882851983AC82AD838E82C3
:103ACC008F83123AD68A0A8B0B22E0FAA3E0FB1200
:103ADC000B01227404121E097F0A021F1C74EC12C3
:103AEC001E4A8C108D11EA2405F50CEB1240EE7574
:103AFC000F00EA2402F50AEB123BD3850A82F58308
:103B0C0012387E12461D7003023BC5750E00807183
:103B1C00850C82850D83E06401704F8E828F83A3A8
:103B2C00A31220748E828F83A3A3A3A3E0F5127536
:103B3C001300781212205DEE2405F512EF3400F517
:103B4C0013781212205D123878120C217406121E92
:103B5C0009E9F50F6014850C82850D83E4F012449D
:103B6C000B851082851183123BF07C177D00790048
:103B7C00EEFAEFFB1205018E828F83E4F0A3F005C1
:103B8C000E90053EE0F8E50EC398501EE50E75F05C
:103B9C0017A4F8A9F0850882850983A3A31245838D
:103BAC00123BD9EC4D6003023B1C850882850983CE
:103BBC0074FFF0A3F0E50F7006123878120897A97D
:103BCC000F023983F50AEF3400F50B22A3123BDE0A
:103BDC00FD22E0FCA3E0228E828F83124413850E1B
:103BEC0082850F83E8F0A3E9F022C082C0839005A0
:103BFC003AE06A7003A3E06B70067A3A7B058004A6
:103C0C007A007B00022F3874F7121E4A7F00EF7582
:103C1C00F003A4F8A9F0EC28F8ED39F9888289832F
:103C2C00E06A7003A3E06B7006E8FAE9FB800B0F07
:103C3C00EFC3940240D87A007B007F01021F1C74F2
:103C4C00F6121E4A1241FC70067A007B008007A314
:103C5C00A3A3A312387E0242BD74F2121E4AE9FEDF
:103C6C00740E121E3E123CC57410121E3E12412DD3
:103C7C008C828D83E06402703BA312440F8882898E
:103C8C0083E0F50CA3E0F9A80C74026870037429A6
:103C9C00697021750C02750D00780C12205D780886
:103CAC0012205D780A12205DEEF9120C4574061292
:103CBC001E098002790102432DE0F50AA3E0F50B01
:103CCC002274E8121E4A74FB121DF3E985188285D2
:103CDC001983F08A168B178C0E8D0F741F121E3ED3
:103CEC0012412D7421121E3E123CC57423121E3E2D
:103CFC001241177510008C828D83A3A3A3E0A2E45C
:103D0C00502A741D121E3E12398E8A828B83E582D4
:103D1C0045837003023DD9790AAC0EAD0FAA16ABE0
:103D2C0017121E48E9F5106003023DDC850E8285F2
:103D3C000F83E064026003024092A312440F8508D3
:103D4C0082850983A3858212858313E50E2406F5EB
:103D5C000CE50F1240EE88828983E0FAA3E0F9EAC1
:103D6C002400F514E439F51578141220E70100004D
:103D7C00280128A13D07000228783E0328E83D00D1
:103D8C0029A23F0129CA3F0229713F0329A23F04FE
:103D9C002933409240EE4F703E850C82850D831284
:103DAC004108FAE9FB8A828B83E0850A82850B83C2
:103DBC0012414412205D8A828B83A3123BDEFDAA42
:103DCC0008AB091204E97402121E09800375100E67
:103DDC00A910740502457175100B80F4EE4F70F745
:103DEC00850A82850B837401F012411D850882853A
:103DFC000983F07C007D00850E82850F83A3A3A32D
:103E0C00A3E02401FAA3E03400FB120B01EA4B609F
:103E1C00418A828B83E02402F8850A82850B83E039
:103E2C0028F0EA2404F8EB3400F988828983E085D1
:103E3C00128285138312415612414412205D8A82EC
:103E4C008B83123BD8E5082403FAE5093400FB0206
:103E5C003DCF850A82850B83E02404F07C047D0031
:103E6C007900AA12AB13120501023DDCEE4F600380
:103E7C00023DE312411DFEA3E0FF850A82850B8300
:103E8C007404F0EE850882850983F0EF8512828533
:103E9C001383F07403121E3EAC82AD83EEFAEFFB7B
:103EAC001241EA7003023F4E8A828B83A3A3124114
:103EBC00137401121E3E85820E85830F780E12201C
:103ECC005D7405121E3E1220747CFF7DFF120B07E1
:103EDC007404121E098B0FEA450F7033850C828512
:103EEC000D831240F312205D850C82850D83A31285
:103EFC0020747C027D007AC17B8512093374041214
:103F0C001E09E9700A7401121E3E74FFF0A3F08EB4
:103F1C00828F83E064027034750C02750D00780C8E
:103F2C0012205D8E828F83123BD8E5082404FAE5BB
:103F3C0009123504121E09850A82850B83E02402BE
:103F4C0080097401121E3EEEF0A3EFF07401121EF4
:103F5C003E124104F07401121E3EA31240FCA3A3B6
:103F6C00A3F0023DDCEE4F6003023DE3850C82853D
:103F7C000D83123BD9AA16AB17120C39850A828510
:103F8C000B837402F0EA850882850983F08512821E
:103F9C00851383EB80CBEE4F6003023DE312411D92
:103FAC00F8A3E0F9850A82850B837402F0E8850892
:103FBC0082850983F0E985128285138380A3850CA1
:103FCC0082850D8312387E1204E3EAFC8C82A8826F
:103FDC00C39EE49F404BE86E7001EF70047C008040
:103FEC001F851882851983E0FAEE2AFAEF3400FB5C
:103FFC00C3EA98EB94005003E08004EECCC39CFC25
:10400C00EC850A82850B83F08C0A750B00780A12FA
:10401C00205D850C82850D83E02EFCA3E03F023DE4
:10402C00CA751007023DDCEE4F6003023DE3850CC0
:10403C0082850D8312440F850A82850B837407F0E9
:10404C00888289831240FC1240E4E0851282851339
:10405C0083F0E82402FAE93400FB8A828B83124055
:10406C00FC124135124104A312413E12410DF0E8FD
:10407C002405F8E93400F98882898312410DA312D2
:10408C004156A3023F6A741D121E3E1241F5700385
:10409C00023DD912440F880C890DE8450D700302BE
:1040AC003DD98E108F11781012205D780A12205D88
:1040BC00780812205D7406121E3EE0F9AC0EAD0FAE
:1040CC00AA16AB17850C82850D83121E4874061236
:1040DC001E09E9F510023DDCF088828983A322F5E4
:1040EC000CEF3400F50D22E0F50E750F00780E2262
:1040FC00E08508828509832212415D22124413E86F
:10410C002212415DA3A322A3A3A3A3E0FEA3E0FF7D
:10411C0022850C82850D83E0F8A3E0F5838882E08C
:10412C0022E0F508A3E0F50922A3A3F08A828B8391
:10413C00A322122DF0A3A322F08A828B8312414D6D
:10414C0022E0F50A750B00780A221240E412415D58
:10415C0022E0850882850983A3A32274EE121E4AED
:10416C0074FE121DF38A0A8B0BECFAEDFB7414121D
:10417C001E3EE0F510A3E0F5117416121E3EE0FE93
:10418C007418121E3EE0F50EA3E0F50F851882851B
:10419C001983AC82AD831241EA603E851882851981
:1041AC00831241F5602FA3A312412DE50845096048
:1041BC0024780E12205D781012205DEEF9AC0CAD57
:1041CC000DAA0AAB0B850882850983121E4874045C
:1041DC00121E098006790E8002790102362A120B12
:1041EC00018A0C8B0DEA450D221238821241FC22F9
:1041FC00120BCD8A828B83E58245832274F6121EC4
:10420C004A74FE121DF3740C121E3E1241088518DE
:10421C0082851983F07401121E3EE9F0E4F508F56D
:10422C0009780812205D750802780812205D740464
:10423C00121E3E858208858309780812205D120CB7
:10424C00217406121E097402121E09806474F7127E
:10425C001E4AEAFEEBFF89087C717D05120C39EAD7
:10426C005402600BA908EEFAEFFB120AF5800279F2
:10427C0001023C4674F6121E4A74FF6A700374FF06
:10428C006B701C7B00EB75F003A4F8A9F0EC28F81C
:10429C00ED39F91242C20BEBC39402501480E612B2
:1042AC000C098A088B09A808A909E849600312427D
:1042BC00C27F02021F1C8882898374FF122DEEE4D8
:1042CC00F02274F6121E4A120C098A828B83E58244
:1042DC0045836006A3A3E0FA80027A007B0080D1BC
:1042EC0074F2121E4A8A088B09ECFEEDFF740E1252
:1042FC001E3EE0F50A124332701CEEFCEFFD7AFF15
:10430C007BFF12433270047911801688828983E511
:10431C0008F0A3E509F088828983A3A3E50AF07964
:10432C00007F06021F1C120C098A0C8B0DA80CA90D
:10433C000DE8492274EE121E4AEAFEEBFF8C088D42
:10434C0009890C7412121E3E12440F7414121E3E74
:10435C00123BD97416121E3E12387E750D00EC4DB0
:10436C0060030244037402650C60030243FE8882FE
:10437C008983123BDEF9EC2400F50EE439F50FEAE3
:10438C00F4F8EBF4F9EC58F8E50F59F9E849705DDD
:10439C00E5082406F8E5093400F9880A890B8882B7
:1043AC00F583123513120C398A108B11E50E65103A
:1043BC007004E50F65116042780E12205D850A824B
:1043CC00850B83123513120C3F7402121E09E9F58A
:1043DC000D7027780E12205D850882850983A3A3B2
:1043EC00123511120C577402121E09800D750D80B6
:1043FC008008750D0D8003750D0BA90D023AE48E26
:10440C00828F8312441322E0F8A3E0F92274E8129D
:10441C001E4A74E7121DF3851882851983EAF0A3EE
:10442C00EBF08C168D17890E7431121E3EE0F512CE
:10443C00A3E0F5137433121E3EE0F514A3E0F5155A
:10444C007435121E3EE0F50F750800750900E5097C
:10445C0075F003A4F8A9F085188285198312458399
:10446C00E0F47003A3E0F47003024561EE2402F55E
:10447C000CEF124579E0700302456185160A851729
:10448C000B780A12205DAC14AD15AA12AB13120BEB
:10449C00C17402121E098A0A8B0BEA450B700302C7
:1044AC004561E4F510F511781012205D7406121EAA
:1044BC003E858210858311781012205D7409121EBE
:1044CC003E858210858311781012205D85128285BD
:1044DC001383A3A3A3A31220747914AC0AAD0B8E7F
:1044EC00828F83124597121E09E97069850A8285AD
:1044FC000B83A3A3A3A312440F7402121E3E123B00
:10450C00F0850C82850D83E0A2E05018A90E740290
:10451C00121E3EAC82AD838E828F8312387E120BBC
:10452C0019E94208850C82850D83E0A2E15026E54D
:10453C000FF50A780A122061A90E7403121E3EAC04
:10454C0082AD838E828F8312387E120B137401120C
:10455C001E09E942080509E509C394025003024407
:10456C005AA9087419121E097F10021F1C3400F579
:10457C000D850C82F58322E028FEA3E039FF8E82A4
:10458C008F83227916850A82850B83123882120C4E
:10459C001B74082274F2121E4AEAFEEBFF890B749C
:1045AC0001650B600E7402650B70637901120E319C
:1045BC00E9705BEEFAEFFB12461D6047750A00804E
:1045CC000B7C177D007900120501050A90053EE071
:1045DC00F8E50AC3985021E50A75F017A4F8A9F07C
:1045EC00850882850983A3A3E028FAA3E039FB8A16
:1045FC00828B83122F3F70C985088285098374FFD3
:10460C00F0A3F07C717D05EEFAEFFB120C33024344
:10461C002D120C038A088B09EA45092274F2121E2A
:10462C004A8A088B09ECFEEDFF740E121E3E123CFA
:10463C00C5900BB7E0F4603D7A097B0012050DEADA
:10464C004B60328A828B8374B1F0A3E4124137A39E
:10465C00124135A3E508F0A3E509124684EEF0A358
:10466C00EF124684A3A3E50AF0A3E50BF0900BB779
:10467C00E0F912051902432DF08A828B83A3A3A3C0
:10468C00A3A322C082C0839061907404F0A37448E9
:10469C00F0A37402F09061807440F09061BC7403DC
:1046AC00F09061877419F0906265741BF090619CB6
:1046BC00740DF090619A7433F0A37455F09061A06E
:1046CC00743AF09007B5E064017009C29190061F2E
:1046DC007467800590061F7461F0902CB2E493907F
:1046EC006186F0902CACE493F46027E493540FF8BB
:1046FC00906185E0686012E5C654804449F5C6E5D2
:10470C009E547F644970F8E8F053C680E59E547F50
:10471C0070FA79051211850248D1C082C083E95420
:10472C000FF9906185E0696012E5C654804449F543
:10473C00C6E59E547F644970F8E9F053C680E59E47
:10474C00547F70FA0248D1C082C083E5A8F853A800
:10475C007E906181E4F0A3F0A3F0C2BA539AFEC23A
:10476C0089759B00C2C275E90075910075BF007513
:10477C00A91175B905906181F0A374C0F0A3E4F0A0
:10478C00D2BA439A0174805842A80248D1C082C060
:10479C008374F8121DF390061DE0F8A3E0F9E849C4
:1047AC0070030248C790061DE054406023790885C9
:1047BC001882851983AA82AB83120FED8518828526
:1047CC001983AA82AB83120CC390061DE054BFF070
:1047DC00E054806010790C7AD97B07120FED9006AB
:1047EC001DE0547FF0E0A2E0503190619A7433F0F8
:1047FC00A37455F09061A0743AF09007B5E0640191
:10480C007009C29190061F7467800590061F746131
:10481C00F0120CC990061DE054FEF0E05402603119
:10482C0090619A743FF0A3745AF09061A0747FF079
:10483C009007B5E064017009D29190061F747180E5
:10484C000590061F746AF0120CC990061DE054FD09
:10485C00F0E054046013902CB0E493906186F01255
:10486C000CCF90061DE054FBF0E054086013902C24
:10487C00B1E493906186F0120CCF90061DE054F7D2
:10488C00F0E054106013902CB2E493906186F01217
:10489C000CCF90061DE054EFF0E05420600A120C8F
:1048AC00CF90061DE054DFF0A3E05401600D120F11
:1048BC0015120CD590061EE054FEF07408121E0959
:1048CC008003F0A3F0D083D08202013574EC121E69
:1048DC004A74F4121DF3851882851983AC82AD835A
:1048EC007583857582527404121D06902CB093F456
:1048FC006003024A65907808E0C394025003024AB0
:10490C00457404121E3EAC82AD837583847582AAF5
:10491C007408121D06851882851983858212858379
:10492C00137404121E3EAC82AD83750EFF750FFF1F
:10493C007FFF7E00750C48750D78801574086E70BD
:10494C00030249D874096E70030249D8740A6E6068
:10495C007B850C82850D837808121CC38C828D8319
:10496C00A909E50AC9F8881074187808121C04E51E
:10497C00104508F8C3E098A3E099850C82850D8357
:10498C007808121CC340188C828D83741878081216
:10499C001C04E5104508F8E0C398F8A3E0801C74EB
:1049AC00187808121C04E5104508FAE9FB8C828D76
:1049BC0083E0F8A3E0F9EAC398F8EB99F9C3E8951A
:1049CC000EE9950F5006880E890FEEFF0EE50C24AC
:1049DC0004F50CE50D3400F50DEEC39413500302F1
:1049EC00494874FF650E700474FF650F60238F08CF
:1049FC0074027808121DE074482508F58274783525
:104A0C0009F5837808121CC3851282851383E50887
:104A1C00F0EC24020C0CED3400FD8512828513831E
:104A2C00A3858212858313740C121E3EE5826C7072
:104A3C0003E5836D6003024936750801750900783A
:104A4C000812205D7402121E3EAC82AD837A2C7B60
:104A5C000B12070B7402121E09740C121E097F0C28
:104A6C00021F1CC082C0839061AE7468F0A3746A8C
:104A7C00F090624574FBF0A304F053F4FD43FE0286
:104A8C009007B57401F09061A0E0643A90619A705F
:104A9C00237433F0A37455F09061A0743AF0740150
:104AAC0064017009C29190061F7467802890061FDC
:104ABC0074618021743FF0A3745AF09061A0747FEC
:104ACC00F0740164017009D29190061F7471800515
:104ADC0090061F746A0248D07F04021F1CC082C05B
:104AEC0083900767E06401700A90076CE0600479BA
:104AFC000C800279000248D1C082C08375E1F1902C
:104B0C00076AE060551460081460591460518059AC
:104B1C00120F27900760E0F97A617B07121107905A
:104B2C00854A121CE112113D908562121CE1121192
:104B3C001390076BE0F912111F790112117990078C
:104B4C005EE02416F8A3E03400F988828983743F70
:104B5C00F0A3740FF079000248D1120F2D80B4121B
:104B6C000F3380AF120F3980AA791280EA74F412D5
:104B7C001E4A75D90D90074FE0A2E0E4331313F8E9
:104B8C00900760E0C4333354C0484401F5D9785ED3
:104B9C00790788828983A3A3A3E0F5D988828983C6
:104BAC00A3A882A983E864647003E9640770E378BE
:104BBC004F790788828983A3E0F5D988828983A3FA
:104BCC00A882A983E864557003E9640770E575E170
:104BDC009590074FE0F97A507B0712110D900BD985
:104BEC0074D3F0A3740EF0A37435F0A37410F0A377
:104BFC007435F0A37410F0A37435F0A37410F0A303
:104C0C0074D9F0A3740EF0A37435F0A37410F0A350
:104C1C0074F1F0A3740EF0900BE77435F0A37410DC
:104C2C00F0A37435F0A37410F0A37435F0A37410D2
:104C3C00F0A37435F0A37410F0A37435F0A37410C2
:104C4C00F0A37435F0A37410F090075EE0F8A3E0C5
:104C5C00F5838882A3A37808121CC3908546780834
:104C6C00121C4F90855A7808121C9D90075EE02408
:104C7C000EF8A3E03400F9888289837808121CD2DC
:104C8C0090075EE02414F8A3E03400F9888289834D
:104C9C007413F090061B7402F0024AE4C082C083C5
:104CAC00900770E02407F5D9900760E0C4333354C3
:104CBC00C0F5D9785E790788828983A3A3A3E0F530
:104CCC00D988828983A3A882A983E864647003E9E4
:104CDC00640770E3900770E0601F785E7907FAE86C
:104CEC002413F582E93400F583E0F5D988828983B1
:104CFC00A3A882A9831AEA70E6900790E02407F52E
:104D0C00D9900760E0C4333354C04404F5D9785EBD
:104D1C00790788828983A3A3A3E0F5D98882898344
:104D2C00A3A882A983E864647003E9640770E39024
:104D3C000790E0601F785E7907FAE82433F582E982
:104D4C003400F583E0F5D988828983A3A882A983EE
:104D5C001AEA70E675E195900BD974DFF0A3740E26
:104D6C00F0A37435F0A37410F0A37435F0A3741091
:104D7C00F0A37435F0A37410F0A374D9F0A3740EDF
:104D8C00F0A37435F0A37410F0A374F1F0A3740EB7
:104D9C00F0900BE77435F0A37410F0A37435F0A306
:104DAC007410F0A37435F0A37410F0A37435F0A351
:104DBC007410F0A37435F0A37410F0A37435F0A341
:104DCC007410F090856E121CE190075EE0240EF8D2
:104DDC00A3E03400F988828983121CED90075EE011
:104DEC002414F8A3E03400F9888289837412F090BB
:104DFC00061B74010248D0C082C083900770E02467
:104E0C0007F5D9900760E0C4333354C04402F5D998
:104E1C00785E790788828983A3A3A3E0F5D9888279
:104E2C008983A3A882A983E864647003E96407708A
:104E3C00E3900770E0601F785E7907FAE82413F5B9
:104E4C0082E93400F583E0F5D988828983A3A882AE
:104E5C00A9831AEA70E675E195900BD974EBF0A36F
:104E6C00740EF0A374EBF0A3740EF0A374EBF0A328
:104E7C00740EF0A374EBF0A3740EF0A374EBF0A318
:104E8C00740EF0A374EBF0A3740EF0A374F1F0A302
:104E9C00740EF0900BE77435F0A37410F0A3743516
:104EAC00F0A37410F0A37435F0A37410F0A3743550
:104EBC00F0A37410F0A37435F0A37410F0A3743540
:104ECC00F0A37410F090856E121CE190075EE02444
:104EDC000EF8A3E03400F988828983121CED900748
:104EEC005EE02414F8A3E03400F9888289837414FA
:104EFC00F090061B74040248D0C082C083900770E7
:104F0C00E02407F5D9900760E0C4333354C044065D
:104F1C00F5D9785E790788828983A3A3A3E0F5D9B4
:104F2C0088828983A3A882A983E864647003E964F6
:104F3C000770E3900770E0601F785E7907FAE82449
:104F4C0013F582E93400F583E0F5D988828983A3CF
:104F5C00A882A9831AEA70E6900790E02407F5D995
:104F6C00900760E0C4333354C04404F5D9785E79BB
:104F7C000788828983A3A3A3E0F5D988828983A3B8
:104F8C00A882A983E864647003E9640770E390075E
:104F9C0090E0601F785E7907FAE82433F582E934F3
:104FAC0000F583E0F5D988828983A3A882A9831AA6
:104FBC00EA70E675E195900BD974E5F0A3740EF0E8
:104FCC00A37435F0A37410F0A37435F0A37410F02F
:104FDC00A37435F0A37410F0A37435F0A37410F01F
:104FEC00A37435F0A37410F0A374F1F0A3740EF055
:104FFC00900BE77435F0A37410F0A37435F0A37420
:10500C0010F0A37435F0A37410F0A37435F0A374EE
:10501C0010F0A37435F0A37410F0A37435F0A374DE
:10502C0010F090856E121CE190075EE0240EF8A340
:10503C00E03400F988828983121CED90075EE0242D
:10504C0014F8A3E03400F9888289837415F0900673
:10505C001B74030248D0C082C08390075EE0F8A3A3
:10506C00E0F5838882A3A3A3A3A3A3E40248CE7490
:10507C00F7121E4A900649E0F875F004A4C8AAF08D
:10508C002AF9744B28F8740639F9E82405FAE9343E
:10509C0000FB8A828B83E0FCA3E0FD88828983A3DA
:1050AC00A3A3A3A3A3A3A3A3ECF0A3EDF0888289ED
:1050BC0083A3A3A3A3A3A3A3E024FFF8A3E034FF3B
:1050CC00F98A828B83E8F0A3E902532074F7121E4D
:1050DC004AEAFEEBFF9061D0E060030251B575D94E
:1050EC000E75D90375D904EE248CF582EF3400F5D6
:1050FC0083E5822408F8E5833400F9E0F5D9A3E8C8
:10510C0065827003E9658370F2EE2484F582EF34D6
:10511C0000F583E5822404F8E5833400F9E0F5D941
:10512C00A3E865827003E9658370F275E1957908EF
:10513C00EE248CFAEF3400FB120FE17904EE248498
:10514C00FAEF3400FB120FE17C00EEF8EFF9ECFA09
:10515C00C3E49AFA95E0FBEE2AFAEF3BFBEA248BC8
:10516C00F582EB3400F583E0C0E0E824ABF582E98E
:10517C003400F583D0E0F00C88828983A3A882A93F
:10518C0083ECC3940840C7EE2470F582EF3400F52D
:10519C0083E0F8A3E0F9EE2472F582EF3400F58396
:1051AC00E8F0A3E9F0790180027900025321C08272
:1051BC00C08375D90275D90375D90575E195EA24B3
:1051CC0070F582EB3400F583E0F8A3E0F9EA247281
:1051DC00F582EB3400F583E8F0A3E9F0790102489D
:1051EC00D174F6121E4AEAFEEBFF9007B97406F072
:1051FC007508B9750907780812205D7C01790312CE
:10520C0010297402121E0975D90675D9037582B955
:10521C00758307E0F5D9A3E58264BE7004E5836469
:10522C000770F075E19590061BE06408701EEE2483
:10523C0070F582EF3400F583E0F8A3E0F9EE247208
:10524C00F582EF3400F583E8F0A3E9F0790102531D
:10525C00ED74F6121E4AEAFEEBFF9061D0E0706628
:10526C0078019007B9740BF090061BE06407701975
:10527C007508B9750907780812205D7C017903124D
:10528C0010297402121E097805740128F5D975D9F4
:10529C00037582B9758307E8FAE0F5D9A31AEA70A9
:1052AC00F875E195EE2470F582EF3400F583E0F8A3
:1052BC00A3E0F9EE2472F582EF3400F583E8F0A355
:1052CC00E9F07901800279000253ED74F7121E4A5D
:1052DC00EAFEEBFF75D90375D90375D90DEE24DE03
:1052EC00F582EF3400F583E0F5D975E19579041278
:1052FC001143EE2470F582EF3400F583E0F8A3E05F
:10530C00F9EE2472F582EF3400F583E8F0A3E9F0AE
:10531C0079018001F07F01021F1C74F6121E4AEA0B
:10532C00FEEBFF9061D0E0F87480C398FAEE248312
:10533C00F582EF3400F583E0600478048002780095
:10534C00E8240BF8EAC39850030253EB7D0990074D
:10535C00B9EDF0EE24E3F8EF3400F97ABA7B077C70
:10536C000888828983E08A828B83F088828983A370
:10537C00A882A9838A828B83A3AA82AB831CEC703C
:10538C00E0EE2483F582EF3400F583E0601D7508B0
:10539C00B9750907780812205D7C097903EEFAEFDC
:1053AC00FB1210297402121E097D0D74012DF5D902
:1053BC0075D9037582B97583078D08E0F5D9A315E6
:1053CC0008E50870F675E1957904121143EE241D79
:1053DC00F582EF3400F583E4F0A3F07901800279D3
:1053EC00007F02021F1C74F6121E4AEAFEEBFF90AD
:1053FC0061D0E0F87480C398FAEE2483F582EF3420
:10540C0000F583E06004780480027800E82408F852
:10541C00EAC39850030254F27D069007B9740CF05D
:10542C00900638E09007BAF07A397B0678BB79079A
:10543C007C028A828B83E088828983F08A828B83C8
:10544C00A3AA82AB8388828983A3A882A9831CEC3C
:10545C0070E07A3B7B067C028A828B83E0888289AF
:10546C0083F08A828B83A3AA82AB8388828983A3ED
:10547C00A882A9831CEC70E0EE2483F582EF340043
:10548C00F583E0601D7508B9750907780812205D71
:10549C007C067903EEFAEFFB1210297402121E0936
:1054AC007D0A74012DF5D975D9037582B9758307F9
:1054BC008D08E0F5D9A31508E50870F675E1957926
:1054CC0004121143EE2470F582EF3400F583E0F8FA
:1054DC00A3E0F9EE2472F582EF3400F583E8F0A333
:1054EC00E9F07901800279000253ED74F6121E4A3C
:1054FC00EAFEEBFF9061D0E0F87480C398FAEE24DA
:10550C0083F582EF3400F583E06004780480027840
:10551C0000E82404F8EAC39850030255D1780290AD
:10552C0007B9E8F0EE24F5F582EF3400F583E0904E
:10553C0007BAF0EE2483F582EF3400F583E0601BAC
:10554C007508B9750907780812205D7C027903EE9D
:10555C00FA1210297402121E097806740128F5D962
:10556C0075D9037582B97583078808E0F5D9A31539
:10557C0008E50870F675E195EE2474F582EF3400B9
:10558C00F583E4F0EE2480F582EF3400F583E4F04B
:10559C00EE241DF582EF3400F583E4F0A3F07904DA
:1055AC00121143EE240DF582EF3400F583E0F8A3DD
:1055BC00E0F9EE2472F582EF3400F583E8F0A3E90C
:1055CC00F07901800279000253ED74F6121E4A90B4
:1055DC0061D0E0F87480C398FCEA2483F582EB3444
:1055EC0000F583E06004780480027800E82404F875
:1055FC00ECC398405B79029007B97407F0EA24F683
:10560C00F582EB3400F583E09007BAF0EA2483F5D9
:10561C0082EB3400F583E060187508B975090778DA
:10562C000812205D7C02091210297402121E0979DD
:10563C0006740129F5D975D9037582B9758307E903
:10564C00F8E0F5D9A318E870F875E19579018002B6
:10565C0079000253ED74F5121E4AE9FCA2AFE43353
:10566C00F50AC2AF7D0080010DEA246FF582EB34A0
:10567C0000F583E0F8EDC398501A8D08EA2508F878
:10568C00EB3400F9E8246BF582E93400F583E06C27
:10569C0070D68024EA246FF8EB3400F9E0FEEA2E91
:1056AC00FAEB3400FBEA246BF582EB3400F583EC67
:1056BC00F088828983E004F0E50AA2E092AF7F03D0
:1056CC00021F1C74F6121E4AA2AFE433FDC2AFEAED
:1056DC00246FF582EB3400F583E014F07C00603627
:1056EC008C08EA2508F8EB3400F9E8246CF582E91B
:1056FC003400F583E0C0E0E8246BF582E93400F572
:10570C0083D0E0F00CEA246FF582EB3400F583E0F3
:10571C00F8ECC39840CAEA246EF582EB3400F583AA
:10572C0074FFF0EA246AF582EB3400F583E4F0EDC3
:10573C00A2E092AF0253EDC082C083E5A8F8C2AFDD
:10574C00EA246BF582EB3400F583E9F0EA246AF580
:10575C0082EB3400F583E4F0E8A2E792AF0248D183
:10576C0074F3121E4AEAFEEBFFECFAEDFB8A828B15
:10577C0083A3A3A3A3E0541FF0EE2436F582EF34E9
:10578C0000F583E4F0F50AEEFCEFFD8A828B83E0F2
:10579C00C0E0EC245DF582ED3400F583D0E0F075CB
:1057AC000B00E50A33333354F8F50C8A828B83E013
:1057BC00F508750900E50B7808121DC1E508A2E093
:1057CC00502FEE2436F8EF3400F988828983E0F507
:1057DC0008EE2508F508EF3400F509E5082438F53E
:1057EC0082E5093400F583E50CF088828983E004B6
:1057FC00F0050B050CE50BC3940840AF050A8A8233
:10580C008B83A3AA82AB838C828D83A3AC82AD8362
:10581C00E50AC3940550030257977F05021F1C74B9
:10582C00F7121E4A900647E0640170077A007B006D
:10583C000259A27E0090064DE070F17401F0A3E4D1
:10584C00F0A3F09006AD04F09006B0E4F0A3F09055
:10585C0006B304F0900650E4F0A3F0A3F0A3F0908C
:10586C00065A04F0900680E4F0908532121CE19008
:10587C000663121CED900667E4F0A3F0A3F090060B
:10588C00CBF09006BFF09006B47480F0A3E4F090D7
:10589C0006BAF09006B2F0900736F0A3F0A3F0A38E
:1058AC00F0A3F0A3F0A3F0A3F090073FF09006CE86
:1058BC00F090071EF0A3F0908532121CE1900720A7
:1058CC00121CED908532121CE1900724121CED90F5
:1058DC00072AE4F090072CF0900728F0900742F08C
:1058EC00A3F0A3F0A3F0A3F0A3F0A3F0A3F07847E8
:1058FC007906E8246FF582E93400F58374FFF00E25
:10590C0088828983A3A882A983EEC3940440E37A96
:10591C00477B067856790788828983E0C0E0EA24C1
:10592C0061F582EB3400F583D0E0F088828983A3A3
:10593C00A882A9838A828B83A3AA82AB83E8645B47
:10594C007003E9640770D07A477B06782E79068855
:10595C00828983A3E0C0E0EA24E7F582EB3400F50A
:10596C0083D0E0F088828983A3A882A9838A828B62
:10597C0083A3AA82AB83E864367003E9640670CF14
:10598C00900647E004F06401700890064FE0900622
:10599C0049F07A4B7B06025321C082C08390064E9D
:1059AC00E4F090064DF0900647F0A3F0A374FFF0DE
:1059BC0075E1F10248D1C082C0837800790090066D
:1059CC004EE06004784B790688828983A3A3A3A355
:1059DC00E0F90248D174F6121E4AEAFEEBFF8E8201
:1059EC008F83A3A3A3E0600F8E828F83A3A3A3E472
:1059FC00F0900648E014F0900647E014F070069022
:105A0C00064974FFF08E828F83A3A3E4F090075BAA
:105A1C00E0700D900648E0640170057900121125C4
:105A2C00EE2465F582EF3400F583E0F8A3E0F9E8A5
:105A3C00496029EE2465F8EF3400F9880889098853
:105A4C0082F583E0FCA3E0FD900649E0FA7B0012AE
:105A5C000CF9850882850983E4F0A3F0EEFAEFFBDC
:105A6C001210590253ED74F7121E4AEAFEEBFF8E28
:105A7C00828F83A3A3A3A3E0FA7B00120D3BEEFA63
:105A8C00EFFB120FAB121041025321C082C083787E
:105A9C002E790688828983A3E4F088828983A3A85F
:105AAC0082A983E864367003E9640670E690062FD9
:105ABC00024DFE74F6121E4AEAFEEBFFEC2403F8CC
:105ACC00ED3400F988088909EC2407F8ED3400F965
:105ADC00E8FCE9FD8C828D83E0F8A3E0F98508826F
:105AEC00850983E0FAA3E0FB121D68EE240DF58214
:105AFC00EF3400F583E8F0A3E9F08C828D83E0F8B5
:105B0C00A3E0F9850882850983E0FAA3E0FB121D66
:105B1C00688B09EA45096013EE240DF582EF340019
:105B2C00F583E02401F0A3E03400F00253ED74F6A9
